:100000006F00303000000000820400008604000011
:1000100000000000000000000000000000000000E0
:1000200000000000000000000000000000000000D0
:10003000D00A000000000000D20A0000000000000A
:10004000D40A0000D60A0000D80A0000DA0A00002C
:1000500050040000DE0A0000E00A0000E20A00008E
:10006000E40A0000E60A0000E80A0000EA0A0000CC
:10007000EC0A0000EE0A0000F00A0000F20A00009C
:10008000F40A0000F60A0000F80A0000FA0A00006C
:10009000FC0A0000FE0A0000000B00000000000047
:1000A000511126C022C206C4828282441244A24058
:1000B000310182802A86014593F6150091C232955E
:1000C00085810606F5F9828000000000634E050276
:1000D00063C305042E86AA857D5515C285466378BF
:1000E000B6006356C00006068606E36CB6FE014500
:1000F00063E4C500918D558D85820582F5FA828075
:100100008682C93F2E8582823305A04063D70500D1
:10011000B305B040C1B7B305B0408682653F330533
:10012000A0408282868263C70500634905005D376F
:100130002E858282B305B040E35B05FE3305A04007
:10014000513F3305B04082820000EFF27FF513018A
:1001500081FD85451145B714014002C602C802CA97
:1001600002CC02CE02D002D202C202C4EF00D04EB4
:100170000544C14719476C00138504803ECA788640
:1001800022C8EF00702985454145EF00F04C7D57AE
:10019000C1476C003715014078863ECA22C8EF007F
:1001A000B027854513050002EF00104BC1473ECA3A
:1001B0006C009307D0071385044022C87C86EF00AB
:1001C000B0258947130780046C00138504407C86A2
:1001D0003EC03ACAEF00502485450D45EF00B031CE
:1001E00009473ACC280831473AD022D202CEEF0054
:1001F0009019824713074011480078825C8322C41B
:10020000EF009031130181024DB5EFF27FE9130148
:10021000C1FD85451305400302C402C602C802CAD7
:1002200002CC02CE02D002C002C2EF00F0428545ED
:1002300037050010EF00304437140140FD577C842F
:100240002C0093078002130504803EC8EF00D01CE9
:100250002C0037150140EF00301C2C001305044022
:10026000EF00901B9307800489442C001305044081
:100270003EC86484EF00501A85450D45EF00B02755
:10028000894705443ECA4808B1473ECE22D002CC39
:10029000EF00700F930740110A857C80448122C2D1
:1002A000EF0090271301410209B5EFF27FDF05450A
:1002B000EF00503913051006EF00D03D65DD054510
:1002C000EF003030DDB3EFF2BFDDEF006079EF001B
:1002D000703EA53DD9BBEFF2BFDC6111BD350924ED
:1002E00013050019EF00F043814702C00144814427
:1002F000370700209306870198221377F70F01C76D
:1003000023800600850402470507420741833AC05F
:1003100082461307301F6368D710130710036374F6
:100320008700850401441147636B970E8566139718
:1003300024009386C6F53697184302873EC20D21E6
:10034000CD2213054006EF00D03D2123DD24130507
:100350004006EF00103DE52AF52613054006EF00A4
:10036000503CFD2CC129130540060504EF00703BED
:100370001374F40F9247ADBF3EC2652213054006C9
:10038000EF00303A7D2413054006EF0090395D2ED2
:1003900013054006EF00F038712913054006EF0001
:1003A0005038752213054006EF00B037552C130561
:1003B0004006EF0010376D2613054006EF0070363B
:1003C000492955B70547638EE70089CB0947638DF7
:1003D000E7000D47638DE700F12831A8792A8547AA
:1003E00001BF5D24894729B7512E8D4711B7492197
:1003F00005041374F40F8147E5BD0547638DE700DD
:1004000089CB0947638BE7000D47E397E7FC6D292C
:10041000C5B7C922E9B7F924F1B77D2EF9B73EC2B5
:100420009144492881BF130710039144E36B87EE81
:10043000B704002005479384940198A03EC29D28EC
:10044000E933A53549352380040002C081441DB736
:100450000945EF00E07905C5B707002083C797017C
:1004600093F7F70F91E7B70700200547238CE700C4
:1004700013052003EF00F02A0945EF0040797300CF
:1004800020307300203001A0EFF29FC137140140EB
:10049000130504809945EF0090059305F00F37157B
:1004A0000140EF00D0049305D00713050440EF008E
:1004B0001004E5BEEFF2DFBE3714014013050480DF
:1004C0009945EF0010039305F00F37150140EF0039
:1004D00050029305D00713050440EF009001F1B6D8
:1004E000EFF21FBC553713054006EF009023D937B4
:1004F00013054006EF00F022413F13054006EF00D0
:1005000050224D3F13054006EF00B021B53F1305C3
:100510004006EF001021793F13054006EF007020E0
:1005200069B6EFF2FFB7371401401305048089451F
:10053000EF00E07B9305100437150140EF00207BAE
:100540009305000213050440EF00607AB9BEEFF294
:100550003FB537140140130504808945EF006079E9
:100560009305100437150140EF00A07893050002B1
:1005700013050440EF00E0770DBEEFF27FB271117A
:10058000930440060144A54763E48704593F654549
:10059000EF00901505041374F40F93074006E3145D
:1005A000F4FEFD1493F4F40FF1FC93074006A284CB
:1005B0003EC0713F6545FD14EF00101393F4F40F36
:1005C0008247FDF4FD1793F7F70FF5F31101F1BC26
:1005D000BD3F75BFEFF2DFAC0144814463F7840493
:1005E00089371305F00AEF003010850493F4F40FF7
:1005F00093074006E394F4FE05041374F40FE31E1E
:1006000094FC814463F58402293F1305F00AEF004E
:10061000B00D850493F4F40F93074006E394F4FEC1
:100620007D141374F40F71FC49B415375DBF0537A1
:10063000E9BFEFF2FFA6371401401305048091458E
:10064000EF00E06A9305200837150140EF00206AAB
:100650009305000413050440EF0060696FF0FFA4E8
:10066000EFF21FA437140140130504809145512572
:100670009305200837150140AD2D9305000413059F
:100680000440852D6FF07FA2EFF29FA171119304BA
:1006900040060144A54763E58704613F6545EF00D7
:1006A000B00405041374F40F93074006E314F4FE3A
:1006B000FD1493F4F40FF1FC93074006A2843EC0AE
:1006C00045376545FD14EF00300293F4F40F82477F
:1006D000FDF4FD1793F7F70FF5F311016FF0FF9C91
:1006E00041376DBFEFF2DF9B0144814463F884041E
:1006F00089371305F00AEF00207F850493F4F40F87
:1007000093074006E394F4FE05041374F40FE31E0C
:1007100094FC814463F68402293F1305F00AEF003C
:10072000A07C850493F4F40F93074006E394F4FE51
:100730007D141374F40F71FC6FF03F97153755BF9C
:100740000537E1BFEFF2DF95D1453715014045236D
:1007500037150140A54513050540512B6FF0FF9457
:10076000EFF21F94D1453715014061233715014041
:10077000A54513050540B52B6FF03F93EFF25F924F
:100780007111930440060144A54763E587045D3F6A
:100790006545EF00607505041374F40F9307400678
:1007A000E314F4FEFD1493F4F40FF1FC93074006F8
:1007B000A2843EC075376545FD14EF00E07293F4E6
:1007C000F40F8247FDF4FD1793F7F70FF5F31101CE
:1007D0006FF0BF8D71376DBFEFF29F8C0144814484
:1007E00063F6840485371305F00AFD2D850493F420
:1007F000F40F93074006E395F4FE05041374F40F19
:10080000E31F94FC814463F584022D3F1305F00A35
:10081000E12D850493F4F40F93074006E395F4FE6D
:100820007D141374F40F79FC6FF03F88153F65BF9A
:10083000053FE9BFEFF2DF869305800237150140DF
:100840007D2137150140D145130505404D216FF03D
:10085000DF85EFF2FF8493058002371501405129AF
:1008600037150140D1451305054061216FF0FF8325
:10087000EFF21F837111930440060144A54763E31F
:1008800087044D3F65458D2505041374F40F9307C8
:100890004006E315F4FEFD1493F4F40FF9FC9307FE
:1008A0004006A2843EC075376545FD14352D93F48E
:1008B000F40F8247E5F8FD1793F7F70FFDF31101E9
:1008C0006FF0AFFE79377DBFEFF28FFD01448144B9
:1008D00063F6840485371305F00A3925850493F4FB
:1008E000F40F93074006E395F4FE05041374F40F28
:1008F000E31F94FC814463F584022D3F1305F00A45
:10090000E523850493F4F40F93074006E395F4FE82
:100910007D141374F40F79FC6FF02FF91D3F65BF40
:100920000D3FE9BFEFF2CFF7EFF0FF99EFF0BF9A7D
:1009300001456FF08FF7B71702409843B706FFFCE9
:1009400061111367170098C3D843758FD8C39843B4
:10095000B706F7FEFD16758F98C39843B706FCFFE0
:10096000FD16758F98C3D843C176FD16758FD8C311
:1009700037079F0098C7984F1367070298CF37171C
:100980000140832607401306074093F6F6F0232024
:10099000D7408326074093E606082320D74009471F
:1009A00018CA02C002C2984FB706014021661367F9
:1009B000170098CFD842518FD8C29843C1663706E6
:1009C0000200558F98C3B716024009679C42F18F09
:1009D0003EC2824785073EC0924781E78247E39740
:1009E000E7FEB71702409C431397E70063580706DA
:1009F00085473EC2124785476310F706B727024076
:100A00009843C176FD16719B98C3984313671700EE
:100A100098C3B7170240D843D8C3D843758FD8C3FB
:100A2000D843C166558FD8C39843B7060001558F88
:100A300098C3984393166700E3DD06FED843B716C4
:100A40000240719BD8C3D84313672700D8C32147FE
:100A5000DC42B18BE39EE7FE2101828002C259BFD6
:100A6000EFF20FE4371702405C4337040020914651
:100A7000B18B130404016385D700A1466382D704B8
:100A8000B7376E01938707601CC0B7160240DC427F
:100A90000840918313F7F700B707002093870700FA
:100AA000BA978C23DC4293F5F50F93F70708335779
:100AB000B50081E7EFF00FE22A8718C06FF0EFDE94
:100AC0005C43B777DC02938707C07DBF01A001A01C
:100AD00001A001A001A001A001A001A001A001A00E
:100AE00001A001A001A001A001A001A001A001A0FE
:100AF00001A001A001A001A001A001A001A001A0EE
:100B000001A097010020938161D1138181FE170517
:100B100000001305254697F5FF1F9385A54E17F690
:100B2000FF1F1306A64F63FAC5008322050023A00A
:100B3000550011059105E3EAC5FE17F5FF1F1305E2
:100B4000E54D9385C1806377B5002320050011052D
:100B5000E36DB5FE93020008739002308D427390EE
:100B6000428097F2FFFF9382E24993E23200739052
:100B70005230EFF05FDC970200009382E2DA73906C
:100B80001234730020305841032305004C453706CA
:100B90000140930706403E979346F3FFB1C5832576
:100BA0000640F58D2320B640D043F18ED4C31443C4
:100BB000B3E6660014C3184190479346F7FF758E5D
:100BC00090C7D047F18ED4C7144541466399C600FB
:100BD0009447D98E94C7D447558FD8C78280B6978B
:100BE0009443558F98C382801C43F58F1CC3828029
:100BF000B70701401387074083A70740584B698F09
:100C000009C77D8D3335A000828001458280B707FA
:100C1000014023AAA74082809C45611122C226C0C0
:100C200013F7070113F3F70001C7D8413363E3005B
:100C300092211377F60F29C7832305000147130478
:100C40008002930480048546B395E600B376B6002F
:100C50006392D50293122700BD46B396560093C601
:100C6000F6FFB3F37600B3125300B3E37200639759
:100C700087064CC90507A146E317D7FC232075005A
:100C80001307F00F6378C70483234500A1461304BC
:100C90008002930480040547B312D70033775600CF
:100CA0006394E202139726000117BD45B395E50052
:100CB00093C5F5FFB3F375003317E300B363770013
:100CC00063928702232A550085064147E395E6FC97
:100CD000232275001244824421018280E39C97F80C
:100CE0000CC949BFE39297FE23285500F1BF0CC9F8
:100CF00082804CC9828037070140144786058D47A2
:100D0000B397B70093C7F7FFF58F1CC71C47B31500
:100D1000B500DD8D0CC78280B70700209387C7011F
:100D20009443182181E63C21920721A8944305466B
:100D3000639FC6023C21103192076314D60093E7EB
:100D400007F8B7E600E093F7F70FBA962380F6406E
:100D50008546935757003397E6005441A5C29387C1
:100D600007048A07B7E600E0B69798C382808C43F1
:100D700089466391D50214313C216365D6008A0609
:100D8000B6975DB79386E6038A06B69793F7F70F93
:100D9000920775B790438D46631CD60014313C21F1
:100DA0006364D6008606E9BF9386C6078606F1BF50
:100DB00094439147E39EF6F81C31BDB7938707062D
:100DC0004DB7B77700409843759B98C39843136716
:100DD000270098C3B7F700E003A707D113674700C0
:100DE00023A8E7D005476311E50203A707D15D9B60
:100DF00023A8E7D07300501037F700E0832707D10E
:100E0000ED9B2328F7D0828083A607D103A707D1C3
:100E100093F606021367870223A8E7D003A707D13A
:100E20001377F7FD558F23A8E7D003A707D11367E2
:100E3000870023A8E7D07300501003A707D11367DA
:100E400087007DB7371702405C5309C593E7170049
:100E50005CD38280F99BEDBF99C5371702401C4FC8
:100E60005D8D08CF8280B7170240984F1345F5FF7C
:100E7000798D88CF828099C5371702405C4F5D8D90
:100E800048CF8280B7170240D84F1345F5FF798DC0
:100E9000C8CF82801357550085476319F700B717ED
:100EA00002409C4333D5A70005898280B7170240D2
:100EB000DC53CDBFEFF2CF9EB707002003A507019B
:100EC000B7157A0093850520EFF0CFA01375F50FC5
:100ED0002385A18093175500898F8A073E950E05BB
:100EE0002394A1806FF06F9CEFF28F9B37F400E0AA
:100EF0005C40AA85F99B5CC003C5A180EFF08F9B85
:100F000008C8232404001C4093E717001CC0B7F74F
:100F100000E0D843058B75DF9843799B98C36FF049
:100F2000CF98EFF2EF9737F400E05C40AA85F99B89
:100F30005CC003D58180EFF0EF9708C8232404003C
:100F40001C4093E717001CC0B7F700E0D843058B9F
:100F500075DF9843799B98C36FF02F953C03000091
:100F600078030000C4030000FA030000300400000E
:100F70000102030405060708010203040506070829
:080F8000006CDC02000000001F
:00000001FF
