:100000006F00005D00000000C6020000CA02000090
:1000100000000000000000000000000000000000E0
:1000200000000000000000000000000000000000D0
:100030009E05000000000000A00500000000000078
:10004000A2050000A4050000A6050000A805000008
:10005000A8020000AC050000AE050000B0050000DD
:10006000B2050000B4050000B6050000B8050000A8
:10007000BA050000BC050000BE050000C005000078
:10008000C2050000C4050000C6050000C805000048
:10009000CA050000CC050000CE05000000000000ED
:1000A000511126C022C206C4828282441244A24058
:1000B000310182802A86014593F6150091C232955E
:1000C00085810606F5F9828000000000634E050276
:1000D00063C305042E86AA857D5515C285466378BF
:1000E000B6006356C00006068606E36CB6FE014500
:1000F00063E4C500918D558D85820582F5FA828075
:100100008682C93F2E8582823305A04063D70500D1
:10011000B305B040C1B7B305B0408682653F330533
:10012000A0408282868263C70500634905005D376F
:100130002E858282B305B040E35B05FE3305A04007
:10014000513F3305B04082820000EFF27FF513018A
:10015000C1FD854511453714014002C402C602C8DD
:1001600002CA02CC02CE02D002C002C2EF00E0728C
:10017000C1478D4419472C00130504803EC878847C
:1001800026C6952385454145EF0020711307F00FE2
:10019000C1472C003715014078843EC826C6A123EC
:1001A000854513050002EF00406FC1473EC82C0093
:1001B0009307D0071305044026C67C842D2393079C
:1001C000800489442C00130504403EC86484212B1C
:1001D00085450D45C52B894705443ECA4808B147AA
:1001E0003ECE22D002CCBD21930740110A857C80EF
:1001F000448122C2EF00C05F130141027DB5EFF2DE
:100200003FEA71119307803E3EC0B7040020353F9E
:10021000138784011C2393F7F70F91C7230007006E
:100220009307007D3EC00944E9200245EF00006CC1
:1002300039220245EF00806B892A0245EF00006BEE
:10024000BD2A0245EF00806AC1280245EF00006A1E
:10025000112A0245EF008069B1220245EF000069D2
:10026000AD2A0245EF0080688547631DF402114402
:10027000152A412002457D141374F40FEF00006726
:10028000A92A75280245EF0060667920FD280245FD
:10029000EF00C065C12825220245EF00206569F8FE
:1002A0003520BDB7054449B70945112919C9B70714
:1002B0000020054713052003238CE700052D094581
:1002C0003129730020307300203001A0EFF25FDD90
:1002D00037140140130504809945DD219305F00F83
:1002E00037150140F1299305D00713050440C929AA
:1002F0006DBBEFF2FFDA3714014013050480894526
:10030000752993051004371501404D299305000206
:1003100013050440652151BBEFF29FD8371401400B
:100320001305048089456929930510043715014098
:10033000412993050002130504405921BDB3EFF292
:100340003FD6371401401305048091458529930554
:100350002008371501409D21930500041305044032
:10036000B129A1B3EFF2DFD33714014013050480A4
:100370009145B92193052008371501409121930536
:100380000004130504402D290DB3EFF27FD1D145B0
:1003900037150140252137150140A54513050540B6
:1003A000312921B3EFF2DFCFD145371501400929BB
:1003B00037150140A545130505401921FDB1EFF2A0
:1003C0003FCE9305800237150140CD2E37150140F1
:1003D000D14513050540DD26C9B9EFF27FCC930561
:1003E000800237150140E92E37150140D14513052C
:1003F0000540F9265DB9EFF2BFCA0945ED26152A79
:100400006529F53B014555B1B71702409843B7063A
:10041000FFFC61111367170098C3D843758FD8C3C9
:100420009843B706F7FEFD16758F98C39843B70635
:10043000FCFFFD16758F98C3D843C176FD16758FE6
:10044000D8C337079F0098C7984F1367070298CF04
:1004500037170140832607401306074093F6F6F04E
:100460002320D7408326074093E606082320D74061
:10047000094718CA02C002C2984FB7060140216658
:100480001367170098CFD842518FD8C29843C166DE
:1004900037060200558F98C3B716024009679C4281
:1004A000F18F3EC2824785073EC0924781E782476F
:1004B000E397E7FEB71702409C431397E7006358A2
:1004C000070685473EC2124785476310F706B727E0
:1004D00002409843C176FD16719B98C398431367F9
:1004E000170098C3B7170240D843D8C3D843758FB5
:1004F000D8C3D843C166558FD8C39843B706000107
:10050000558F98C3984393166700E3DD06FED843E2
:10051000B7160240719BD8C3D84313672700D8C3CE
:100520002147DC42B18BE39EE7FE2101828002C2BB
:1005300059BFEFF2FFB6371702405C433704002083
:100540009146B18B130404016385D700A1466380F3
:10055000D704B7376E01938707601CC0B7160240F7
:10056000DC420840918313F7F700B7070020938718
:100570000700BA978C23DC4293F5F50F93F7070831
:100580003357B50099E3B9362A8718C039BE5C43A2
:10059000B777DC02938707C0C9B701A001A001A00B
:1005A00001A001A001A001A001A001A001A001A043
:1005B00001A001A001A001A001A001A001A001A033
:1005C00001A001A001A001A001A001A001A001A023
:1005D0009701002093818124138181FE170500007B
:1005E0001305C534970500209385C5A11706002083
:1005F0001306C6A263FAC5008322050023A0550096
:1006000011059105E3EAC5FE17050020130505A1B4
:100610009385C1806377B500232005001105E36D44
:10062000B5FE93020008739002308D4273904280B1
:10063000970200009382029D93E232007390523041
:10064000EFF09FDC97020000938222DB739012345C
:10065000730020305841032305004C453706014004
:10066000930706403E979346F3FFB1C583250640A6
:10067000F58D2320B640D043F18ED4C31443B3E6A6
:10068000660014C3184190479346F7FF758E90C7D4
:10069000D047F18ED4C7144541466399C6009447AC
:1006A000D98E94C7D447558FD8C78280B6979443C4
:1006B000558F98C382801C43F58F1CC38280B70777
:1006C00001401387074083A70740584B698F09C72C
:1006D0007D8D3335A000828001458280B7070140BF
:1006E00023AAA74082809C45611122C226C013F72D
:1006F000070113F3F70001C7D8413363E3009221E8
:100700001377F60F29C783230500014713048002DE
:10071000930480048546B395E600B376B6006392F1
:10072000D50293122700BD46B396560093C6F6FF36
:10073000B3F37600B3125300B3E3720063978706F6
:100740004CC90507A146E317D7FC23207500130702
:10075000F00F6378C70483234500A1461304800289
:10076000930480040547B312D7003377560063948F
:10077000E202139726000117BD45B395E50093C526
:10078000F5FFB3F375003317E300B36377006392AB
:100790008702232A550085064147E395E6FC23227C
:1007A00075001244824421018280E39C97F80CC9B1
:1007B00049BFE39297FE23285500F1BF0CC9828000
:1007C0004CC9828037070140144786058D47B3978F
:1007D000B70093C7F7FFF58F1CC71C47B315B500CB
:1007E000DD8D0CC78280B707002023AEA700828072
:1007F000B70700209387C7019443182181E63C2165
:10080000920721A894430546639FC6023C211031FC
:1008100092076314D60093E707F8B7E600E093F772
:10082000F70FBA962380F6408546935757003397C3
:10083000E6005441A5C2938707048A07B7E600E0A3
:10084000B69798C382808C4389466391D502143150
:100850003C216365D6008A06B6975DB79386E603AA
:100860008A06B69793F7F70F920775B790438D46B0
:10087000631CD60014313C216364D6008606E9BFB0
:100880009386C6078606F1BF94439147E39EF6F828
:100890001C31BDB7938707064DB799C5371702407E
:1008A0001C4F5D8D08CF8280B7170240984F1345CB
:1008B000F5FF798D88CF8280EFF28FFEB707002099
:1008C00003A50701B7157A0093850520EFF09F80F7
:1008D0001375F50F2385A18093175500898F8A071B
:1008E0003E950E052394A1806FF02FFCEFF24FFB95
:1008F00037F400E05C40AA85F99B5CC003D5818099
:10090000EFF04FFB08C8232404001C4093E71700B6
:100910001CC0B7F700E0D843058B75DF9843799B7F
:0809200098C36FF08FF800008E
:100928000102030405060708010203040506070877
:08093800006CDC02000000006D
:00000001FF
