:100000006F006063000000002C030000300300005C
:1000100000000000000000000000000000000000E0
:1000200000000000000000000000000000000000D0
:1000300004060000000000000606000000000000AA
:10004000080600000A0600000C0600000E0600006C
:100050000C03000012060000140600001606000043
:10006000180600001A0600001C0600001E0600000C
:1000700020060000220600002406000026060000DC
:10008000280600002A0600002C0600002E060000AC
:1000900030060000320600003406000000000000B8
:1000A000511126C022C206C4828282441244A24058
:1000B000310182802A86014593F6150091C232955E
:1000C00085810606F5F9828000000000634E050276
:1000D00063C305042E86AA857D5515C285466378BF
:1000E000B6006356C00006068606E36CB6FE014500
:1000F00063E4C500918D558D85820582F5FA828075
:100100008682C93F2E8582823305A04063D70500D1
:10011000B305B040C1B7B305B0408682653F330533
:10012000A0408282868263C70500634905005D376F
:100130002E858282B305B040E35B05FE3305A04007
:10014000513F3305B04082820000EFF27FF513018A
:10015000C1FD854511453714014002C402C602C8DD
:1001600002CA02CC02CE02D002C002C2EF00B0022C
:10017000C1478D4419472C00130504803EC878847C
:1001800026C6EF00A05C85454145EF00D00013076F
:10019000F00FC1472C003715014078843EC826C6B1
:1001A000EF00C05A854513050002EF00C07EC1472D
:1001B0003EC82C009307D0071305044026C67C8454
:1001C00071239307800489442C00130504403EC822
:1001D0006484AD2B85450D45EF00206589470544B6
:1001E0003ECA4808B1473ECE22D002CCF92193073F
:1001F00040110A857C80448122C2EF00C065094518
:1002000089231301410255B5EFF29FE9511185454C
:100210001305400302C002C202C4EF00C077854547
:1002200037050010EF000079FD57371501407C803D
:100230008A8593078002130505803EC4012B8A85B9
:1002400037150140212331018DB5EFF27FE50545DA
:10025000EF00207313051006EF00A07765DD05455C
:10026000EF00006A99B5EFF2BFE39307A00F711199
:100270003EC0E13D81473704002093068401982267
:100280001377F70F29CF23800600B9CB5D20AD3F50
:100290006D3F653D1126EF00C0757D280245EF00DA
:1002A000807809220245EF00007899220245EF008C
:1002B00080778D2A0245EF000077D1200245EF00BC
:1002C000807621220245EF00007681220245EF0070
:1002D0008075BD220245EF000075814779BFD5DFEB
:1002E0002D229D280245EF000074992A65280245B9
:1002F000EF0060736920ED280245EF00C072F12025
:1003000015220245EF002072854785BF094519294E
:1003100001CDB7070020054713054006238CE700F1
:10032000EF006070094531297300203073002030E0
:1003300001A0EFF2FFD63714014013050480994560
:10034000DD219305F00F37150140F1299305D00702
:1003500013050440C92991BBEFF29FD43714014023
:10036000130504808945752993051004371501404C
:100370004D29930500021305044065213DB3EFF2BA
:100380003FD237140140130504808945692993053C
:10039000100437150140412993050002130504405C
:1003A000592121B3EFF2DFCF371401401305048048
:1003B0009145852993052008371501409D21930516
:1003C000000413050440B129CDB1EFF27FCD3714FD
:1003D0000140130504809145B92193052008371584
:1003E0000140912193050004130504402D2975B99E
:1003F000EFF21FCBD14537150140252137150140BC
:10040000A5451305054031294DB1EFF27FC9D1450E
:1004100037150140092937150140A5451305054049
:10042000192161B1EFF2DFC7930580023715014052
:10043000CD2E37150140D14513050540DD26B5B158
:10044000EFF21FC69305800237150140E92E3715DC
:100450000140D14513050540F92681B9EFF25FC48B
:100460000945ED26152A7123FD3B01453DB9B71716
:1004700002409843B706FFFC61111367170098C349
:10048000D843758FD8C39843B706F7FEFD16758F0E
:1004900098C39843B706FCFFFD16758F98C3D843E1
:1004A000C176FD16758FD8C337079F0098C7984F40
:1004B0001367070298CF37170140832607401306BA
:1004C000074093F6F6F02320D7408326074093E6B3
:1004D00006082320D740094718CA02C002C2984F15
:1004E000B706014021661367170098CFD842518F95
:1004F000D8C29843C16637060200558F98C3B71615
:10050000024009679C42F18F3EC2824785073EC088
:10051000924781E78247E397E7FEB71702409C4383
:100520001397E7006358070685473EC21247854781
:100530006310F706B72702409843C176FD16719BFA
:1005400098C398431367170098C3B7170240D8435E
:10055000D8C3D843758FD8C3D843C166558FD8C385
:100560009843B7060001558F98C3984393166700C8
:10057000E3DD06FED843B7160240719BD8C3D843CB
:1005800013672700D8C32147DC42B18BE39EE7FE07
:100590002101828002C259BFEFF29FB0371702409B
:1005A0005C43370400209146B18B1304040163853A
:1005B000D700A1466380D704B7376E0193870760E1
:1005C0001CC0B7160240DC420840918313F7F700C5
:1005D000B707002093870700BA978C23DC4293F576
:1005E000F50F93F707083357B50099E3E5342A87E9
:1005F00018C065BC5C43B777DC02938707C0C9B7F6
:1006000001A001A001A001A001A001A001A001A0E2
:1006100001A001A001A001A001A001A001A001A0D2
:1006200001A001A001A001A001A001A001A001A0C2
:1006300001A001A001A0970100209381211E138138
:1006400081FE170500001305E541970500209385FD
:10065000659B170600201306669C63FAC50083227B
:10066000050023A0550011059105E3EAC5FE170515
:1006700000201305A59A9385C1806377B5002320D8
:1006800005001105E36DB5FE93020008739002307A
:100690008D4273904280970200009382A29693E26B
:1006A000320073905230EFF09FDC9702000093828B
:1006B00022DB73901234730020305841032305006D
:1006C0004C4537060140930706403E979346F3FF9B
:1006D000B1C583250640F58D2320B640D043F18E69
:1006E000D4C31443B3E6660014C31841904793463D
:1006F000F7FF758E90C7D047F18ED4C71445414699
:100700006399C6009447D98E94C7D447558FD8C7EC
:100710008280B6979443558F98C382801C43F58F8F
:100720001CC38280B70701401387074083A7074097
:10073000584B698F09C77D8D3335A00082800145F4
:100740008280B707014023AAA74082809C4561119F
:1007500022C226C013F7070113F3F70001C7D841DF
:100760003363E30092211377F60F29C78323050033
:10077000014713048002930480048546B395E60084
:10078000B376B6006392D50293122700BD46B396A6
:10079000560093C6F6FFB3F37600B3125300B3E3EB
:1007A0007200639787064CC90507A146E317D7FC7B
:1007B000232075001307F00F6378C70483234500D7
:1007C000A14613048002930480040547B312D700A6
:1007D000337756006394E202139726000117BD4554
:1007E000B395E50093C5F5FFB3F375003317E30048
:1007F000B363770063928702232A55008506414739
:10080000E395E6FC23227500124482442101828094
:10081000E39C97F80CC949BFE39297FE2328550043
:10082000F1BF0CC982804CC9828037070140144750
:1008300086058D47B397B70093C7F7FFF58F1CC7A1
:100840001C47B315B500DD8D0CC78280B7070020AB
:1008500023AEA7008280B70700209387C701944387
:10086000182181E63C21920721A894430546639F05
:10087000C6023C21103192076314D60093E707F8B3
:10088000B7E600E093F7F70FBA962380F640854667
:10089000935757003397E6005441A5C29387070446
:1008A0008A07B7E600E0B69798C382808C438946F2
:1008B0006391D50214313C216365D6008A06B69750
:1008C0005DB79386E6038A06B69793F7F70F92070C
:1008D00075B790438D46631CD60014313C21636488
:1008E000D6008606E9BF9386C6078606F1BF944305
:1008F0009147E39EF6F81C31BDB7938707064DB7C5
:10090000B77700409843759B98C3984313672700B7
:1009100098C3B7F700E003A707D11367470023A8E0
:10092000E7D005476311E50203A707D15D9B23A824
:10093000E7D07300501037F700E0832707D1ED9B15
:100940002328F7D0828083A607D103A707D193F687
:1009500006021367870223A8E7D003A707D11377FE
:10096000F7FD558F23A8E7D003A707D113678700AA
:1009700023A8E7D07300501003A707D1136787009F
:100980007DB7371702405C5309C593E717005CD366
:100990008280F99BEDBF99C5371702401C4F5D8DD2
:1009A00008CF8280B7170240984F1345F5FF798D25
:1009B00088CF828099C5371702405C4F5D8D48CF44
:1009C0008280B7170240D84F1345F5FF798DC8CF05
:1009D00082801357550085476319F700B717024007
:1009E0009C4333D5A70005898280B7170240DC53AA
:1009F000CDBFEFF2EFEAB707002003A50701B71557
:100A00007A0093850520EFF0EFEC1375F50F238541
:100A1000A18093175500898F8A073E950E05239470
:100A2000A1806FF08FE8EFF2AFE737F400E05C40B1
:100A3000AA85F99B5CC003D58180EFF0AFE708C8B9
:100A4000232404001C4093E717001CC0B7F700E004
:100A5000D843058B75DF9843799B98C36FF0EFE41B
:100A6000010203040506070801020304050607083E
:080A7000006CDC020000000034
:00000001FF
